{
  "address": "0x204D67d886be0C810D531BF3144229559cC67901",
  "abi": [
    {
      "inputs": [
        {
          "internalType": "string",
          "name": "_institutionName",
          "type": "string"
        },
        {
          "internalType": "address",
          "name": "_schoolAdmin",
          "type": "address"
        }
      ],
      "stateMutability": "nonpayable",
      "type": "constructor"
    },
    {
      "inputs": [],
      "name": "AccessControlBadConfirmation",
      "type": "error"
    },
    {
      "inputs": [
        {
          "internalType": "address",
          "name": "account",
          "type": "address"
        },
        {
          "internalType": "bytes32",
          "name": "neededRole",
          "type": "bytes32"
        }
      ],
      "name": "AccessControlUnauthorizedAccount",
      "type": "error"
    },
    {
      "inputs": [
        {
          "internalType": "uint256",
          "name": "tokenId",
          "type": "uint256"
        }
      ],
      "name": "DiplomaAlreadyRevoked",
      "type": "error"
    },
    {
      "inputs": [
        {
          "internalType": "uint256",
          "name": "tokenId",
          "type": "uint256"
        }
      ],
      "name": "DiplomaNotActive",
      "type": "error"
    },
    {
      "inputs": [
        {
          "internalType": "uint256",
          "name": "tokenId",
          "type": "uint256"
        }
      ],
      "name": "DiplomaNotFound",
      "type": "error"
    },
    {
      "inputs": [
        {
          "internalType": "bytes32",
          "name": "documentHash",
          "type": "bytes32"
        },
        {
          "internalType": "uint256",
          "name": "existingTokenId",
          "type": "uint256"
        }
      ],
      "name": "DuplicateDocument",
      "type": "error"
    },
    {
      "inputs": [],
      "name": "EnforcedPause",
      "type": "error"
    },
    {
      "inputs": [],
      "name": "ExpectedPause",
      "type": "error"
    },
    {
      "inputs": [],
      "name": "InvalidDocumentHash",
      "type": "error"
    },
    {
      "inputs": [],
      "name": "InvalidRecipient",
      "type": "error"
    },
    {
      "inputs": [],
      "name": "InvalidStudentId",
      "type": "error"
    },
    {
      "inputs": [],
      "name": "ReentrancyGuardReentrantCall",
      "type": "error"
    },
    {
      "inputs": [],
      "name": "SoulboundTokenNonTransferable",
      "type": "error"
    },
    {
      "anonymous": false,
      "inputs": [
        {
          "indexed": true,
          "internalType": "uint256",
          "name": "tokenId",
          "type": "uint256"
        },
        {
          "indexed": true,
          "internalType": "address",
          "name": "recipient",
          "type": "address"
        },
        {
          "indexed": true,
          "internalType": "string",
          "name": "studentId",
          "type": "string"
        },
        {
          "indexed": false,
          "internalType": "string",
          "name": "studentName",
          "type": "string"
        },
        {
          "indexed": false,
          "internalType": "string",
          "name": "degreeTitle",
          "type": "string"
        },
        {
          "indexed": false,
          "internalType": "string",
          "name": "ipfsCID",
          "type": "string"
        },
        {
          "indexed": false,
          "internalType": "bytes32",
          "name": "documentHash",
          "type": "bytes32"
        },
        {
          "indexed": false,
          "internalType": "uint256",
          "name": "issuedAt",
          "type": "uint256"
        },
        {
          "indexed": false,
          "internalType": "address",
          "name": "issuedBy",
          "type": "address"
        }
      ],
      "name": "DiplomaIssued",
      "type": "event"
    },
    {
      "anonymous": false,
      "inputs": [
        {
          "indexed": true,
          "internalType": "uint256",
          "name": "tokenId",
          "type": "uint256"
        },
        {
          "indexed": true,
          "internalType": "address",
          "name": "recipient",
          "type": "address"
        },
        {
          "indexed": false,
          "internalType": "string",
          "name": "reason",
          "type": "string"
        },
        {
          "indexed": false,
          "internalType": "address",
          "name": "revokedBy",
          "type": "address"
        },
        {
          "indexed": false,
          "internalType": "uint256",
          "name": "revokedAt",
          "type": "uint256"
        }
      ],
      "name": "DiplomaRevoked",
      "type": "event"
    },
    {
      "anonymous": false,
      "inputs": [
        {
          "indexed": false,
          "internalType": "address",
          "name": "account",
          "type": "address"
        }
      ],
      "name": "Paused",
      "type": "event"
    },
    {
      "anonymous": false,
      "inputs": [
        {
          "indexed": true,
          "internalType": "bytes32",
          "name": "role",
          "type": "bytes32"
        },
        {
          "indexed": true,
          "internalType": "bytes32",
          "name": "previousAdminRole",
          "type": "bytes32"
        },
        {
          "indexed": true,
          "internalType": "bytes32",
          "name": "newAdminRole",
          "type": "bytes32"
        }
      ],
      "name": "RoleAdminChanged",
      "type": "event"
    },
    {
      "anonymous": false,
      "inputs": [
        {
          "indexed": true,
          "internalType": "bytes32",
          "name": "role",
          "type": "bytes32"
        },
        {
          "indexed": true,
          "internalType": "address",
          "name": "account",
          "type": "address"
        },
        {
          "indexed": true,
          "internalType": "address",
          "name": "sender",
          "type": "address"
        }
      ],
      "name": "RoleGranted",
      "type": "event"
    },
    {
      "anonymous": false,
      "inputs": [
        {
          "indexed": true,
          "internalType": "bytes32",
          "name": "role",
          "type": "bytes32"
        },
        {
          "indexed": true,
          "internalType": "address",
          "name": "account",
          "type": "address"
        },
        {
          "indexed": true,
          "internalType": "address",
          "name": "sender",
          "type": "address"
        }
      ],
      "name": "RoleRevoked",
      "type": "event"
    },
    {
      "anonymous": false,
      "inputs": [
        {
          "indexed": true,
          "internalType": "uint256",
          "name": "tokenId",
          "type": "uint256"
        },
        {
          "indexed": false,
          "internalType": "address",
          "name": "from",
          "type": "address"
        },
        {
          "indexed": false,
          "internalType": "address",
          "name": "to",
          "type": "address"
        }
      ],
      "name": "TransferAttemptBlocked",
      "type": "event"
    },
    {
      "anonymous": false,
      "inputs": [
        {
          "indexed": false,
          "internalType": "address",
          "name": "account",
          "type": "address"
        }
      ],
      "name": "Unpaused",
      "type": "event"
    },
    {
      "inputs": [],
      "name": "ADMIN_ROLE",
      "outputs": [
        {
          "internalType": "bytes32",
          "name": "",
          "type": "bytes32"
        }
      ],
      "stateMutability": "view",
      "type": "function"
    },
    {
      "inputs": [],
      "name": "DEFAULT_ADMIN_ROLE",
      "outputs": [
        {
          "internalType": "bytes32",
          "name": "",
          "type": "bytes32"
        }
      ],
      "stateMutability": "view",
      "type": "function"
    },
    {
      "inputs": [
        {
          "internalType": "bytes32",
          "name": "role",
          "type": "bytes32"
        }
      ],
      "name": "getRoleAdmin",
      "outputs": [
        {
          "internalType": "bytes32",
          "name": "",
          "type": "bytes32"
        }
      ],
      "stateMutability": "view",
      "type": "function"
    },
    {
      "inputs": [
        {
          "internalType": "bytes32",
          "name": "role",
          "type": "bytes32"
        },
        {
          "internalType": "address",
          "name": "account",
          "type": "address"
        }
      ],
      "name": "grantRole",
      "outputs": [],
      "stateMutability": "nonpayable",
      "type": "function"
    },
    {
      "inputs": [
        {
          "internalType": "bytes32",
          "name": "role",
          "type": "bytes32"
        },
        {
          "internalType": "address",
          "name": "account",
          "type": "address"
        }
      ],
      "name": "hasRole",
      "outputs": [
        {
          "internalType": "bool",
          "name": "",
          "type": "bool"
        }
      ],
      "stateMutability": "view",
      "type": "function"
    },
    {
      "inputs": [],
      "name": "institutionName",
      "outputs": [
        {
          "internalType": "string",
          "name": "",
          "type": "string"
        }
      ],
      "stateMutability": "view",
      "type": "function"
    },
    {
      "inputs": [
        {
          "internalType": "address",
          "name": "recipient",
          "type": "address"
        },
        {
          "internalType": "string",
          "name": "studentId",
          "type": "string"
        },
        {
          "internalType": "string",
          "name": "studentName",
          "type": "string"
        },
        {
          "internalType": "string",
          "name": "degreeTitle",
          "type": "string"
        },
        {
          "internalType": "string",
          "name": "ipfsCID",
          "type": "string"
        },
        {
          "internalType": "bytes32",
          "name": "documentHash",
          "type": "bytes32"
        },
        {
          "internalType": "uint256",
          "name": "graduationYear",
          "type": "uint256"
        },
        {
          "internalType": "string",
          "name": "remarks",
          "type": "string"
        }
      ],
      "name": "issueDiploma",
      "outputs": [
        {
          "internalType": "uint256",
          "name": "tokenId",
          "type": "uint256"
        }
      ],
      "stateMutability": "nonpayable",
      "type": "function"
    },
    {
      "inputs": [],
      "name": "pause",
      "outputs": [],
      "stateMutability": "nonpayable",
      "type": "function"
    },
    {
      "inputs": [],
      "name": "paused",
      "outputs": [
        {
          "internalType": "bool",
          "name": "",
          "type": "bool"
        }
      ],
      "stateMutability": "view",
      "type": "function"
    },
    {
      "inputs": [
        {
          "internalType": "bytes32",
          "name": "role",
          "type": "bytes32"
        },
        {
          "internalType": "address",
          "name": "callerConfirmation",
          "type": "address"
        }
      ],
      "name": "renounceRole",
      "outputs": [],
      "stateMutability": "nonpayable",
      "type": "function"
    },
    {
      "inputs": [
        {
          "internalType": "uint256",
          "name": "tokenId",
          "type": "uint256"
        },
        {
          "internalType": "string",
          "name": "reason",
          "type": "string"
        }
      ],
      "name": "revokeDiploma",
      "outputs": [],
      "stateMutability": "nonpayable",
      "type": "function"
    },
    {
      "inputs": [
        {
          "internalType": "bytes32",
          "name": "role",
          "type": "bytes32"
        },
        {
          "internalType": "address",
          "name": "account",
          "type": "address"
        }
      ],
      "name": "revokeRole",
      "outputs": [],
      "stateMutability": "nonpayable",
      "type": "function"
    },
    {
      "inputs": [
        {
          "internalType": "bytes4",
          "name": "interfaceId",
          "type": "bytes4"
        }
      ],
      "name": "supportsInterface",
      "outputs": [
        {
          "internalType": "bool",
          "name": "",
          "type": "bool"
        }
      ],
      "stateMutability": "view",
      "type": "function"
    },
    {
      "inputs": [],
      "name": "unpause",
      "outputs": [],
      "stateMutability": "nonpayable",
      "type": "function"
    }
  ],
  "transactionHash": "0x947353a346b6fa00866703973be47fd506b56b855b3eb2e3594232f7429396b3",
  "args": [
    "Đại học STU",
    "0x4Fb3Fd2c8Af9Ce5250463823DbF8B5a3d013e8bd"
  ],
  "numDeployments": 1,
  "solcInputHash": "59033d9f2ca7f198a6bb014aae7998e1",
  "bytecode": "0x6080604052346102a15761199080380380610019816102a5565b9283398101906040818303126102a15780516001600160401b0381116102a15781019082601f830112156102a15781516001600160401b03811161023e5761006a601f8201601f19166020016102a5565b93818552602082850101116102a1576020815f92828096018388015e8501015201516001600160a01b0381168082036102a15760017f9b779b17422d0df92223018b32b4d1fa46e071723d6817e2486d003becc55f005515610252578151916001600160401b03831161023e57600354600181811c91168015610234575b602082101461022057601f81116101bd575b50602090601f84116001146101555761013a93915f918361014a575b50508160011b915f199060031b1c1916176003555b610134816102ca565b50610340565b5060405161155c90816103d48239f35b015190505f80610116565b90601f1984169160035f52815f20925f5b8181106101a5575091600193918661013a97941061018d575b505050811b0160035561012b565b01515f1960f88460031b161c191690555f808061017f565b92936020600181928786015181550195019301610166565b60035f527fc2575a0e9e593c00f959f8c92f12db2869c3395a3b0502d05e2516446f71f85b601f850160051c81019160208610610216575b601f0160051c01905b81811061020b57506100fa565b5f81556001016101fe565b90915081906101f5565b634e487b7160e01b5f52602260045260245ffd5b90607f16906100e8565b634e487b7160e01b5f52604160045260245ffd5b60405162461bcd60e51b815260206004820152602160248201527f4469706c6f6d6152656769737472793a207a65726f207363686f6f6c41646d696044820152603760f91b6064820152608490fd5b5f80fd5b6040519190601f01601f191682016001600160401b0381118382101761023e57604052565b6001600160a01b0381165f9081525f5160206119705f395f51905f52602052604090205460ff1661033b576001600160a01b03165f8181525f5160206119705f395f51905f5260205260408120805460ff191660011790553391905f5160206119305f395f51905f528180a4600190565b505f90565b6001600160a01b0381165f9081525f5160206119505f395f51905f52602052604090205460ff1661033b576001600160a01b03165f8181525f5160206119505f395f51905f5260205260408120805460ff191660011790553391907fa49807205ce4d355092ef5a8a18f56e8913cf4a201fbe287825b095693c21775905f5160206119305f395f51905f529080a460019056fe6080806040526004361015610012575f80fd5b5f3560e01c90816301ffc9a714610fd457508063248a9ca314610fa25780632f2ff15d14610f6557806336568abe14610f085780633a133e2c14610ec05780633f4ba83a14610e415780635c975abb14610e1f57806375b238fc14610de55780638456cb5914610d8d57806391d1485414610d44578063a217fddf14610d2a578063d547741f14610ce6578063d57a3c0714610a6c5763e5fb6390146100b6575f80fd5b34610a6857610100366003190112610a68576004356001600160a01b0381168103610a685760243567ffffffffffffffff8111610a68576100fb903690600401611199565b909160443567ffffffffffffffff8111610a685761011d903690600401611199565b909160643567ffffffffffffffff8111610a685761013f903690600401611199565b9060843567ffffffffffffffff8111610a6857610160903690600401611199565b91909260e43567ffffffffffffffff8111610a6857610183903690600401611199565b98909961018e61147b565b6101966114af565b61019e6112bc565b6001600160a01b03871615610a40578115610a185760a435156109f05760a4355f52600760205260405f20546109b057600254995f198b1461099c5760018b016002556040519b6101a08d01918d831067ffffffffffffffff841117610785575f6101408f8f8f8f8f6001600160a01b0390600161023d956102979c604052018652166020850152610231368c8c611236565b60408501523691611236565b606082015261024d368a8c611236565b608082015261025a6110e2565b60a082015261026a368c8e611236565b60c082015260a43560e08201524261010082015260c4356101208201520152336101608f01523691611236565b6101808c015260018a015f52600460205260405f209a80518c5560018c016001600160a01b036020830151167fffffffffffffffffffffffff000000000000000000000000000000000000000082541617905560028c01604082015180519067ffffffffffffffff821161078557610319826103138554611088565b856111c7565b602090601f83116001146109395761034892915f91836106c2575b50508160011b915f199060031b1c19161790565b90555b60038c01606082015180519067ffffffffffffffff821161078557610374826103138554611088565b602090601f83116001146108d6576103a292915f91836106c25750508160011b915f199060031b1c19161790565b90555b60048c01608082015180519067ffffffffffffffff8211610785576103ce826103138554611088565b602090601f8311600114610873576103fc92915f91836106c25750508160011b915f199060031b1c19161790565b90555b60058c0160a082015180519067ffffffffffffffff821161078557610428826103138554611088565b602090601f83116001146108105761045692915f91836106c25750508160011b915f199060031b1c19161790565b90555b60068c0160c082015180519067ffffffffffffffff821161078557610482826103138554611088565b602090601f83116001146107ad576104b092915f91836106c25750508160011b915f199060031b1c19161790565b90555b60e081015160078d015561010081015160088d015561012081015160098d015561014081015190600a8d016002831015610799576101809260ff801983541691161781556101608201517fffffffffffffffffffffff0000000000000000000000000000000000000000ff74ffffffffffffffffffffffffffffffffffffffff0083549260081b169116179055015180519067ffffffffffffffff8211610785578c828a9260209f8f9561056d600b610576930154611088565b600b86016111c7565b8f90601f83116001146106cd5761067399956001600160a01b037f76febb0cf64d3359db5c427c46c0717fb8a585faa49011b421b76da06ed86c189d9a9661065896600b839f9c97806105e5916106659e996001995f926106c25750508160011b915f199060031b1c19161790565b9101555b61060b604051878782378781019060058252602081888801930301902061127c565b165f5260206006905261062382820160405f2061127c565b60a4355f526020600790520160405f205581604051928392833781015f81520390209b6040519b60c08d5260c08d0191611216565b918a83038e8c0152611216565b918783036040890152611216565b9260a43560608601524260808601523360a086015216928060018701930390a460017f9b779b17422d0df92223018b32b4d1fa46e071723d6817e2486d003becc55f0055600160405191018152f35b015190505f80610334565b90600b84015f52805f20915f5b601f198516811061075f5750956001600160a01b037f76febb0cf64d3359db5c427c46c0717fb8a585faa49011b421b76da06ed86c189d9a9661065896600b839f9c976106739f9b906106659d98600198899383601f19811610610747575b505050811b019101556105e9565b01515f1960f88460031b161c191690555f8080610739565b93955091602091949650600182918685015181550194019201918f9593918d95936106da565b634e487b7160e01b5f52604160045260245ffd5b634e487b7160e01b5f52602160045260245ffd5b90601f19831691845f52815f20925f5b8181106107f857509084600195949392106107e0575b505050811b0190556104b3565b01515f1960f88460031b161c191690555f80806107d3565b929360206001819287860151815501950193016107bd565b90601f19831691845f52815f20925f5b81811061085b5750908460019594939210610843575b505050811b019055610459565b01515f1960f88460031b161c191690555f8080610836565b92936020600181928786015181550195019301610820565b90601f19831691845f52815f20925f5b8181106108be57509084600195949392106108a6575b505050811b0190556103ff565b01515f1960f88460031b161c191690555f8080610899565b92936020600181928786015181550195019301610883565b90601f19831691845f52815f20925f5b8181106109215750908460019594939210610909575b505050811b0190556103a5565b01515f1960f88460031b161c191690555f80806108fc565b929360206001819287860151815501950193016108e6565b90601f19831691845f52815f20925f5b818110610984575090846001959493921061096c575b505050811b01905561034b565b01515f1960f88460031b161c191690555f808061095f565b92936020600181928786015181550195019301610949565b634e487b7160e01b5f52601160045260245ffd5b60a4355f52600760205260405f20547f4eaadb52000000000000000000000000000000000000000000000000000000005f5260a43560045260245260445ffd5b7f192d9976000000000000000000000000000000000000000000000000000000005f5260045ffd5b7f47029596000000000000000000000000000000000000000000000000000000005f5260045ffd5b7f9c8d2cd2000000000000000000000000000000000000000000000000000000005f5260045ffd5b5f80fd5b34610a68576040366003190112610a685760043560243567ffffffffffffffff8111610a6857610aa0903690600401611199565b9190610aaa61147b565b610ab26114af565b610aba6112bc565b815f526004602052600860405f20015415610cba57815f52600460205260405f20600a810160ff815416600281101561079957600114610c8e57600160ff19825416179055825f52600860205260405f2067ffffffffffffffff851161078557610b2e85610b288354611088565b836111c7565b845f601f8211600114610bf957926001600160a01b0392610b89836001947fefed01dc45262068b7e2f972b088fa576dec0695088318d860b565d4a954ff7898975f91610bee575b508160011b915f199060031b1c19161790565b90555b60078101545f5260076020525f604081205501541693610bb9604051928392606084526060840191611216565b3360208301524260408301520390a360017f9b779b17422d0df92223018b32b4d1fa46e071723d6817e2486d003becc55f0055005b90508701358b610b76565b5f8381526020812092508790601f198216905b818110610c735750927fefed01dc45262068b7e2f972b088fa576dec0695088318d860b565d4a954ff789695926001600160a01b03959260019510610c5a575b50508288811b019055610b8c565b8601355f1960038b901b60f8161c191690558880610c4c565b8784013585556001909401936020938401938a935001610c0c565b837f9f113c40000000000000000000000000000000000000000000000000000000005f5260045260245ffd5b507f9c97e2c0000000000000000000000000000000000000000000000000000000005f5260045260245ffd5b34610a68576040366003190112610a6857610d28600435610d05611072565b90610d23610d1e825f525f602052600160405f20015490565b61132b565b6113f8565b005b34610a68575f366003190112610a685760206040515f8152f35b34610a68576040366003190112610a6857610d5d611072565b6004355f525f6020526001600160a01b0360405f2091165f52602052602060ff60405f2054166040519015158152f35b34610a68575f366003190112610a6857610da56112bc565b610dad61147b565b600160ff19815416176001557f62e78cea01bee320cd4e420270b5ea74000d11b0c9f74754ebdbfc544b05a2586020604051338152a1005b34610a68575f366003190112610a685760206040517fa49807205ce4d355092ef5a8a18f56e8913cf4a201fbe287825b095693c217758152f35b34610a68575f366003190112610a6857602060ff600154166040519015158152f35b34610a68575f366003190112610a6857610e596112bc565b60015460ff811615610e985760ff19166001557f5db9ee0a495bf2e6ff9c91a7834c1ba4fdd244a5e8aa4e537bd38aeae4b073aa6020604051338152a1005b7f8dfc202b000000000000000000000000000000000000000000000000000000005f5260045ffd5b34610a68575f366003190112610a685760206040610edc6110e2565b815192839181835280519182918282860152018484015e5f828201840152601f01601f19168101030190f35b34610a68576040366003190112610a6857610f21611072565b336001600160a01b03821603610f3d57610d28906004356113f8565b7f6697b232000000000000000000000000000000000000000000000000000000005f5260045ffd5b34610a68576040366003190112610a6857610d28600435610f84611072565b90610f9d610d1e825f525f602052600160405f20015490565b61136b565b34610a68576020366003190112610a68576020610fcc6004355f525f602052600160405f20015490565b604051908152f35b34610a68576020366003190112610a6857600435907fffffffff000000000000000000000000000000000000000000000000000000008216809203610a6857817f7965db0b0000000000000000000000000000000000000000000000000000000060209314908115611048575b5015158152f35b7f01ffc9a70000000000000000000000000000000000000000000000000000000091501483611041565b602435906001600160a01b0382168203610a6857565b90600182811c921680156110b6575b60208310146110a257565b634e487b7160e01b5f52602260045260245ffd5b91607f1691611097565b90601f8019910116810190811067ffffffffffffffff82111761078557604052565b604051905f82600354916110f583611088565b808352926001811690811561117a575060011461111b575b611119925003836110c0565b565b5060035f90815290917fc2575a0e9e593c00f959f8c92f12db2869c3395a3b0502d05e2516446f71f85b5b81831061115e5750509060206111199282010161110d565b6020919350806001915483858901015201910190918492611146565b6020925061111994915060ff191682840152151560051b82010161110d565b9181601f84011215610a685782359167ffffffffffffffff8311610a685760208381860195010111610a6857565b601f82116111d457505050565b5f5260205f20906020601f840160051c8301931061120c575b601f0160051c01905b818110611201575050565b5f81556001016111f6565b90915081906111ed565b908060209392818452848401375f828201840152601f01601f1916010190565b92919267ffffffffffffffff82116107855760405191611260601f8201601f1916602001846110c0565b829481845281830111610a68578281602093845f960137010152565b8054906801000000000000000082101561078557600182018082558210156112a8575f5260205f200155565b634e487b7160e01b5f52603260045260245ffd5b335f9081527f7d7ffb7a348e1c6a02869081a26547b49160dd3df72d1d75a570eb9b698292ec602052604090205460ff16156112f457565b63e2517d3f60e01b5f52336004527fa49807205ce4d355092ef5a8a18f56e8913cf4a201fbe287825b095693c2177560245260445ffd5b805f525f60205260405f206001600160a01b0333165f5260205260ff60405f205416156113555750565b63e2517d3f60e01b5f523360045260245260445ffd5b805f525f60205260405f206001600160a01b0383165f5260205260ff60405f205416155f146113f257805f525f60205260405f206001600160a01b0383165f5260205260405f20600160ff198254161790556001600160a01b03339216907f2f8788117e7eff1d82e926ec794901d17c78024a50270940304540a733656f0d5f80a4600190565b50505f90565b805f525f60205260405f206001600160a01b0383165f5260205260ff60405f2054165f146113f257805f525f60205260405f206001600160a01b0383165f5260205260405f2060ff1981541690556001600160a01b03339216907ff6391f5c32d9c69d2a47ea670b442974b53935d1edc7fd64eb21e047a839171b5f80a4600190565b60ff6001541661148757565b7fd93c0665000000000000000000000000000000000000000000000000000000005f5260045ffd5b60027f9b779b17422d0df92223018b32b4d1fa46e071723d6817e2486d003becc55f0054146114fe5760027f9b779b17422d0df92223018b32b4d1fa46e071723d6817e2486d003becc55f0055565b7f3ee5aeb5000000000000000000000000000000000000000000000000000000005f5260045ffdfea2646970667358221220d0b52e751faa5738b3bc97cc2c62edabf82a0e1d97b3c6493b170512e7684dd164736f6c634300081c00332f8788117e7eff1d82e926ec794901d17c78024a50270940304540a733656f0d7d7ffb7a348e1c6a02869081a26547b49160dd3df72d1d75a570eb9b698292ecad3228b676f7d3cd4284a5443f17f1962b36e491b30a40b2405849e597ba5fb5",
  "devdoc": {
    "details": "Deployed trên Polygon (Layer 2) để tối ưu phí gas",
    "errors": {
      "AccessControlBadConfirmation()": [
        {
          "details": "The caller of a function is not the expected one. NOTE: Don't confuse with {AccessControlUnauthorizedAccount}."
        }
      ],
      "AccessControlUnauthorizedAccount(address,bytes32)": [
        {
          "details": "The `account` is missing a role."
        }
      ],
      "EnforcedPause()": [
        {
          "details": "The operation failed because the contract is paused."
        }
      ],
      "ExpectedPause()": [
        {
          "details": "The operation failed because the contract is not paused."
        }
      ],
      "ReentrancyGuardReentrantCall()": [
        {
          "details": "Unauthorized reentrant call."
        }
      ]
    },
    "events": {
      "Paused(address)": {
        "details": "Emitted when the pause is triggered by `account`."
      },
      "RoleAdminChanged(bytes32,bytes32,bytes32)": {
        "details": "Emitted when `newAdminRole` is set as ``role``'s admin role, replacing `previousAdminRole` `DEFAULT_ADMIN_ROLE` is the starting admin for all roles, despite {RoleAdminChanged} not being emitted to signal this."
      },
      "RoleGranted(bytes32,address,address)": {
        "details": "Emitted when `account` is granted `role`. `sender` is the account that originated the contract call. This account bears the admin role (for the granted role). Expected in cases where the role was granted using the internal {AccessControl-_grantRole}."
      },
      "RoleRevoked(bytes32,address,address)": {
        "details": "Emitted when `account` is revoked `role`. `sender` is the account that originated the contract call:   - if using `revokeRole`, it is the admin role bearer   - if using `renounceRole`, it is the role bearer (i.e. `account`)"
      },
      "Unpaused(address)": {
        "details": "Emitted when the pause is lifted by `account`."
      }
    },
    "kind": "dev",
    "methods": {
      "constructor": {
        "params": {
          "_institutionName": "Tên trường",
          "_schoolAdmin": "Ví nhà trường — nhận DEFAULT_ADMIN_ROLE + ADMIN_ROLE"
        }
      },
      "getRoleAdmin(bytes32)": {
        "details": "Returns the admin role that controls `role`. See {grantRole} and {revokeRole}. To change a role's admin, use {_setRoleAdmin}."
      },
      "grantRole(bytes32,address)": {
        "details": "Grants `role` to `account`. If `account` had not been already granted `role`, emits a {RoleGranted} event. Requirements: - the caller must have ``role``'s admin role. May emit a {RoleGranted} event."
      },
      "hasRole(bytes32,address)": {
        "details": "Returns `true` if `account` has been granted `role`."
      },
      "issueDiploma(address,string,string,string,string,bytes32,uint256,string)": {
        "params": {
          "degreeTitle": "Tên văn bằng / chuyên ngành",
          "documentHash": "Keccak256 hash của file PDF",
          "graduationYear": "Năm tốt nghiệp",
          "ipfsCID": "CID của file PDF trên IPFS",
          "recipient": "Địa chỉ ví của sinh viên",
          "remarks": "Ghi chú thêm",
          "studentId": "Mã số sinh viên",
          "studentName": "Họ tên sinh viên"
        },
        "returns": {
          "tokenId": "     ID của văn bằng vừa cấp"
        }
      },
      "paused()": {
        "details": "Returns true if the contract is paused, and false otherwise."
      },
      "renounceRole(bytes32,address)": {
        "details": "Revokes `role` from the calling account. Roles are often managed via {grantRole} and {revokeRole}: this function's purpose is to provide a mechanism for accounts to lose their privileges if they are compromised (such as when a trusted device is misplaced). If the calling account had been revoked `role`, emits a {RoleRevoked} event. Requirements: - the caller must be `callerConfirmation`. May emit a {RoleRevoked} event."
      },
      "revokeDiploma(uint256,string)": {
        "details": "Tương đương \"Burn\" trong đặc tả, nhưng giữ lại lịch sử on-chain"
      },
      "revokeRole(bytes32,address)": {
        "details": "Revokes `role` from `account`. If `account` had been granted `role`, emits a {RoleRevoked} event. Requirements: - the caller must have ``role``'s admin role. May emit a {RoleRevoked} event."
      },
      "supportsInterface(bytes4)": {
        "details": "Returns true if this contract implements the interface defined by `interfaceId`. See the corresponding https://eips.ethereum.org/EIPS/eip-165#how-interfaces-are-identified[ERC section] to learn more about how these ids are created. This function call must use less than 30 000 gas."
      }
    },
    "title": "DiplomaRegistry - Hệ thống Quản lý Văn bằng (Soulbound Token)",
    "version": 1
  },
  "userdoc": {
    "kind": "user",
    "methods": {
      "issueDiploma(address,string,string,string,string,bytes32,uint256,string)": {
        "notice": "Cấp một văn bằng cho sinh viên"
      },
      "revokeDiploma(uint256,string)": {
        "notice": "Thu hồi (Revoke) văn bằng vĩnh viễn - không thể khôi phục"
      }
    },
    "notice": "SBT (EIP-5114) - Token KHÔNG thể chuyển nhượng, đại diện cho văn bằng",
    "version": 1
  },
  "storageLayout": {
    "storage": [
      {
        "astId": 26,
        "contract": "contracts/DiplomaRegistry.sol:DiplomaRegistry",
        "label": "_roles",
        "offset": 0,
        "slot": "0",
        "type": "t_mapping(t_bytes32,t_struct(RoleData)21_storage)"
      },
      {
        "astId": 417,
        "contract": "contracts/DiplomaRegistry.sol:DiplomaRegistry",
        "label": "_paused",
        "offset": 0,
        "slot": "1",
        "type": "t_bool"
      },
      {
        "astId": 839,
        "contract": "contracts/DiplomaRegistry.sol:DiplomaRegistry",
        "label": "_tokenIdCounter",
        "offset": 0,
        "slot": "2",
        "type": "t_uint256"
      },
      {
        "astId": 841,
        "contract": "contracts/DiplomaRegistry.sol:DiplomaRegistry",
        "label": "institutionName",
        "offset": 0,
        "slot": "3",
        "type": "t_string_storage"
      },
      {
        "astId": 846,
        "contract": "contracts/DiplomaRegistry.sol:DiplomaRegistry",
        "label": "_diplomas",
        "offset": 0,
        "slot": "4",
        "type": "t_mapping(t_uint256,t_struct(Diploma)837_storage)"
      },
      {
        "astId": 851,
        "contract": "contracts/DiplomaRegistry.sol:DiplomaRegistry",
        "label": "_studentDiplomas",
        "offset": 0,
        "slot": "5",
        "type": "t_mapping(t_string_memory_ptr,t_array(t_uint256)dyn_storage)"
      },
      {
        "astId": 856,
        "contract": "contracts/DiplomaRegistry.sol:DiplomaRegistry",
        "label": "_walletDiplomas",
        "offset": 0,
        "slot": "6",
        "type": "t_mapping(t_address,t_array(t_uint256)dyn_storage)"
      },
      {
        "astId": 860,
        "contract": "contracts/DiplomaRegistry.sol:DiplomaRegistry",
        "label": "_hashToTokenId",
        "offset": 0,
        "slot": "7",
        "type": "t_mapping(t_bytes32,t_uint256)"
      },
      {
        "astId": 864,
        "contract": "contracts/DiplomaRegistry.sol:DiplomaRegistry",
        "label": "_revocationReasons",
        "offset": 0,
        "slot": "8",
        "type": "t_mapping(t_uint256,t_string_storage)"
      }
    ],
    "types": {
      "t_address": {
        "encoding": "inplace",
        "label": "address",
        "numberOfBytes": "20"
      },
      "t_array(t_uint256)dyn_storage": {
        "base": "t_uint256",
        "encoding": "dynamic_array",
        "label": "uint256[]",
        "numberOfBytes": "32"
      },
      "t_bool": {
        "encoding": "inplace",
        "label": "bool",
        "numberOfBytes": "1"
      },
      "t_bytes32": {
        "encoding": "inplace",
        "label": "bytes32",
        "numberOfBytes": "32"
      },
      "t_enum(DiplomaStatus)809": {
        "encoding": "inplace",
        "label": "enum DiplomaRegistry.DiplomaStatus",
        "numberOfBytes": "1"
      },
      "t_mapping(t_address,t_array(t_uint256)dyn_storage)": {
        "encoding": "mapping",
        "key": "t_address",
        "label": "mapping(address => uint256[])",
        "numberOfBytes": "32",
        "value": "t_array(t_uint256)dyn_storage"
      },
      "t_mapping(t_address,t_bool)": {
        "encoding": "mapping",
        "key": "t_address",
        "label": "mapping(address => bool)",
        "numberOfBytes": "32",
        "value": "t_bool"
      },
      "t_mapping(t_bytes32,t_struct(RoleData)21_storage)": {
        "encoding": "mapping",
        "key": "t_bytes32",
        "label": "mapping(bytes32 => struct AccessControl.RoleData)",
        "numberOfBytes": "32",
        "value": "t_struct(RoleData)21_storage"
      },
      "t_mapping(t_bytes32,t_uint256)": {
        "encoding": "mapping",
        "key": "t_bytes32",
        "label": "mapping(bytes32 => uint256)",
        "numberOfBytes": "32",
        "value": "t_uint256"
      },
      "t_mapping(t_string_memory_ptr,t_array(t_uint256)dyn_storage)": {
        "encoding": "mapping",
        "key": "t_string_memory_ptr",
        "label": "mapping(string => uint256[])",
        "numberOfBytes": "32",
        "value": "t_array(t_uint256)dyn_storage"
      },
      "t_mapping(t_uint256,t_string_storage)": {
        "encoding": "mapping",
        "key": "t_uint256",
        "label": "mapping(uint256 => string)",
        "numberOfBytes": "32",
        "value": "t_string_storage"
      },
      "t_mapping(t_uint256,t_struct(Diploma)837_storage)": {
        "encoding": "mapping",
        "key": "t_uint256",
        "label": "mapping(uint256 => struct DiplomaRegistry.Diploma)",
        "numberOfBytes": "32",
        "value": "t_struct(Diploma)837_storage"
      },
      "t_string_memory_ptr": {
        "encoding": "bytes",
        "label": "string",
        "numberOfBytes": "32"
      },
      "t_string_storage": {
        "encoding": "bytes",
        "label": "string",
        "numberOfBytes": "32"
      },
      "t_struct(Diploma)837_storage": {
        "encoding": "inplace",
        "label": "struct DiplomaRegistry.Diploma",
        "members": [
          {
            "astId": 811,
            "contract": "contracts/DiplomaRegistry.sol:DiplomaRegistry",
            "label": "tokenId",
            "offset": 0,
            "slot": "0",
            "type": "t_uint256"
          },
          {
            "astId": 813,
            "contract": "contracts/DiplomaRegistry.sol:DiplomaRegistry",
            "label": "recipient",
            "offset": 0,
            "slot": "1",
            "type": "t_address"
          },
          {
            "astId": 815,
            "contract": "contracts/DiplomaRegistry.sol:DiplomaRegistry",
            "label": "studentId",
            "offset": 0,
            "slot": "2",
            "type": "t_string_storage"
          },
          {
            "astId": 817,
            "contract": "contracts/DiplomaRegistry.sol:DiplomaRegistry",
            "label": "studentName",
            "offset": 0,
            "slot": "3",
            "type": "t_string_storage"
          },
          {
            "astId": 819,
            "contract": "contracts/DiplomaRegistry.sol:DiplomaRegistry",
            "label": "degreeTitle",
            "offset": 0,
            "slot": "4",
            "type": "t_string_storage"
          },
          {
            "astId": 821,
            "contract": "contracts/DiplomaRegistry.sol:DiplomaRegistry",
            "label": "institution",
            "offset": 0,
            "slot": "5",
            "type": "t_string_storage"
          },
          {
            "astId": 823,
            "contract": "contracts/DiplomaRegistry.sol:DiplomaRegistry",
            "label": "ipfsCID",
            "offset": 0,
            "slot": "6",
            "type": "t_string_storage"
          },
          {
            "astId": 825,
            "contract": "contracts/DiplomaRegistry.sol:DiplomaRegistry",
            "label": "documentHash",
            "offset": 0,
            "slot": "7",
            "type": "t_bytes32"
          },
          {
            "astId": 827,
            "contract": "contracts/DiplomaRegistry.sol:DiplomaRegistry",
            "label": "issuedAt",
            "offset": 0,
            "slot": "8",
            "type": "t_uint256"
          },
          {
            "astId": 829,
            "contract": "contracts/DiplomaRegistry.sol:DiplomaRegistry",
            "label": "graduationYear",
            "offset": 0,
            "slot": "9",
            "type": "t_uint256"
          },
          {
            "astId": 832,
            "contract": "contracts/DiplomaRegistry.sol:DiplomaRegistry",
            "label": "status",
            "offset": 0,
            "slot": "10",
            "type": "t_enum(DiplomaStatus)809"
          },
          {
            "astId": 834,
            "contract": "contracts/DiplomaRegistry.sol:DiplomaRegistry",
            "label": "issuedBy",
            "offset": 1,
            "slot": "10",
            "type": "t_address"
          },
          {
            "astId": 836,
            "contract": "contracts/DiplomaRegistry.sol:DiplomaRegistry",
            "label": "remarks",
            "offset": 0,
            "slot": "11",
            "type": "t_string_storage"
          }
        ],
        "numberOfBytes": "384"
      },
      "t_struct(RoleData)21_storage": {
        "encoding": "inplace",
        "label": "struct AccessControl.RoleData",
        "members": [
          {
            "astId": 18,
            "contract": "contracts/DiplomaRegistry.sol:DiplomaRegistry",
            "label": "hasRole",
            "offset": 0,
            "slot": "0",
            "type": "t_mapping(t_address,t_bool)"
          },
          {
            "astId": 20,
            "contract": "contracts/DiplomaRegistry.sol:DiplomaRegistry",
            "label": "adminRole",
            "offset": 0,
            "slot": "1",
            "type": "t_bytes32"
          }
        ],
        "numberOfBytes": "64"
      },
      "t_uint256": {
        "encoding": "inplace",
        "label": "uint256",
        "numberOfBytes": "32"
      }
    }
  }
}